No.     Time                          Source                Destination           Protocol Length Info
      1 2017-04-27 11:41:16.819161    127.0.0.1             127.0.0.1             UDP      36     56779 → 4296 Len=4

Frame 1: 36 bytes on wire (288 bits), 36 bytes captured (288 bits) on interface 0
    Interface id: 0 (lo0)
    Encapsulation type: NULL/Loopback (15)
    Arrival Time: Apr 27, 2017 11:41:16.819161000 CEST
    [Time shift for this packet: 0.000000000 seconds]
    Epoch Time: 1493286076.819161000 seconds
    [Time delta from previous captured frame: 0.000000000 seconds]
    [Time delta from previous displayed frame: 0.000000000 seconds]
    [Time since reference or first frame: 0.000000000 seconds]
    Frame Number: 1
    Frame Length: 36 bytes (288 bits)
    Capture Length: 36 bytes (288 bits)
    [Frame is marked: True]
    [Frame is ignored: False]
    [Protocols in frame: null:ip:udp:data]
    [Coloring Rule Name: UDP]
    [Coloring Rule String: udp]
Null/Loopback
    Family: IP (2)
Internet Protocol Version 4, Src: 127.0.0.1, Dst: 127.0.0.1
    0100 .... = Version: 4
    .... 0101 = Header Length: 20 bytes (5)
    Differentiated Services Field: 0x00 (DSCP: CS0, ECN: Not-ECT)
        0000 00.. = Differentiated Services Codepoint: Default (0)
        .... ..00 = Explicit Congestion Notification: Not ECN-Capable Transport (0)
    Total Length: 32
    Identification: 0x990e (39182)
    Flags: 0x00
        0... .... = Reserved bit: Not set
        .0.. .... = Don't fragment: Not set
        ..0. .... = More fragments: Not set
    Fragment offset: 0
    Time to live: 64
    Protocol: UDP (17)
    Header checksum: 0x0000 [validation disabled]
    [Header checksum status: Unverified]
    Source: 127.0.0.1
    Destination: 127.0.0.1
    [Source GeoIP: Unknown]
    [Destination GeoIP: Unknown]
User Datagram Protocol, Src Port: 56779, Dst Port: 4296
    Source Port: 56779
    Destination Port: 4296
    Length: 12
    Checksum: 0xfe1f [unverified]
    [Checksum Status: Unverified]
    [Stream index: 0]
Data (4 bytes)
    Data: 08000700
    [Length: 4]

0000  02 00 00 00 45 00 00 20 99 0e 00 00 40 11 00 00   ....E.. ....@...
0010  7f 00 00 01 7f 00 00 01 dd cb 10 c8 00 0c fe 1f   ................
0020  08 00 07 00                                       ....

No.     Time                          Source                Destination           Protocol Length Info
      2 2017-04-27 11:41:16.837788    127.0.0.1             127.0.0.1             UDP      35     4296 → 56779 Len=3

Frame 2: 35 bytes on wire (280 bits), 35 bytes captured (280 bits) on interface 0
    Interface id: 0 (lo0)
    Encapsulation type: NULL/Loopback (15)
    Arrival Time: Apr 27, 2017 11:41:16.837788000 CEST
    [Time shift for this packet: 0.000000000 seconds]
    Epoch Time: 1493286076.837788000 seconds
    [Time delta from previous captured frame: 0.018627000 seconds]
    [Time delta from previous displayed frame: 0.018627000 seconds]
    [Time since reference or first frame: 0.018627000 seconds]
    Frame Number: 2
    Frame Length: 35 bytes (280 bits)
    Capture Length: 35 bytes (280 bits)
    [Frame is marked: True]
    [Frame is ignored: False]
    [Protocols in frame: null:ip:udp:data]
    [Coloring Rule Name: UDP]
    [Coloring Rule String: udp]
Null/Loopback
    Family: IP (2)
Internet Protocol Version 4, Src: 127.0.0.1, Dst: 127.0.0.1
    0100 .... = Version: 4
    .... 0101 = Header Length: 20 bytes (5)
    Differentiated Services Field: 0x00 (DSCP: CS0, ECN: Not-ECT)
        0000 00.. = Differentiated Services Codepoint: Default (0)
        .... ..00 = Explicit Congestion Notification: Not ECN-Capable Transport (0)
    Total Length: 31
    Identification: 0x52d8 (21208)
    Flags: 0x00
        0... .... = Reserved bit: Not set
        .0.. .... = Don't fragment: Not set
        ..0. .... = More fragments: Not set
    Fragment offset: 0
    Time to live: 64
    Protocol: UDP (17)
    Header checksum: 0x0000 [validation disabled]
    [Header checksum status: Unverified]
    Source: 127.0.0.1
    Destination: 127.0.0.1
    [Source GeoIP: Unknown]
    [Destination GeoIP: Unknown]
User Datagram Protocol, Src Port: 4296, Dst Port: 56779
    Source Port: 4296
    Destination Port: 56779
    Length: 11
    Checksum: 0xfe1e [unverified]
    [Checksum Status: Unverified]
    [Stream index: 0]
Data (3 bytes)
    Data: 0a0007
    [Length: 3]

0000  02 00 00 00 45 00 00 1f 52 d8 00 00 40 11 00 00   ....E...R...@...
0010  7f 00 00 01 7f 00 00 01 10 c8 dd cb 00 0b fe 1e   ................
0020  0a 00 07                                          ...

No.     Time                          Source                Destination           Protocol Length Info
      3 2017-04-27 11:41:21.134927    127.0.0.1             127.0.0.1             UDP      33     56779 → 4296 Len=1

Frame 3: 33 bytes on wire (264 bits), 33 bytes captured (264 bits) on interface 0
    Interface id: 0 (lo0)
    Encapsulation type: NULL/Loopback (15)
    Arrival Time: Apr 27, 2017 11:41:21.134927000 CEST
    [Time shift for this packet: 0.000000000 seconds]
    Epoch Time: 1493286081.134927000 seconds
    [Time delta from previous captured frame: 4.297139000 seconds]
    [Time delta from previous displayed frame: 4.297139000 seconds]
    [Time since reference or first frame: 4.315766000 seconds]
    Frame Number: 3
    Frame Length: 33 bytes (264 bits)
    Capture Length: 33 bytes (264 bits)
    [Frame is marked: True]
    [Frame is ignored: False]
    [Protocols in frame: null:ip:udp:data]
    [Coloring Rule Name: UDP]
    [Coloring Rule String: udp]
Null/Loopback
    Family: IP (2)
Internet Protocol Version 4, Src: 127.0.0.1, Dst: 127.0.0.1
    0100 .... = Version: 4
    .... 0101 = Header Length: 20 bytes (5)
    Differentiated Services Field: 0x00 (DSCP: CS0, ECN: Not-ECT)
        0000 00.. = Differentiated Services Codepoint: Default (0)
        .... ..00 = Explicit Congestion Notification: Not ECN-Capable Transport (0)
    Total Length: 29
    Identification: 0x5998 (22936)
    Flags: 0x00
        0... .... = Reserved bit: Not set
        .0.. .... = Don't fragment: Not set
        ..0. .... = More fragments: Not set
    Fragment offset: 0
    Time to live: 64
    Protocol: UDP (17)
    Header checksum: 0x0000 [validation disabled]
    [Header checksum status: Unverified]
    Source: 127.0.0.1
    Destination: 127.0.0.1
    [Source GeoIP: Unknown]
    [Destination GeoIP: Unknown]
User Datagram Protocol, Src Port: 56779, Dst Port: 4296
    Source Port: 56779
    Destination Port: 4296
    Length: 9
    Checksum: 0xfe1c [unverified]
    [Checksum Status: Unverified]
    [Stream index: 0]
Data (1 byte)
    Data: 09
    [Length: 1]

0000  02 00 00 00 45 00 00 1d 59 98 00 00 40 11 00 00   ....E...Y...@...
0010  7f 00 00 01 7f 00 00 01 dd cb 10 c8 00 09 fe 1c   ................
0020  09                                                .

No.     Time                          Source                Destination           Protocol Length Info
      4 2017-04-27 11:41:22.514082    127.0.0.1             127.0.0.1             UDP      36     65291 → 4296 Len=4

Frame 4: 36 bytes on wire (288 bits), 36 bytes captured (288 bits) on interface 0
    Interface id: 0 (lo0)
    Encapsulation type: NULL/Loopback (15)
    Arrival Time: Apr 27, 2017 11:41:22.514082000 CEST
    [Time shift for this packet: 0.000000000 seconds]
    Epoch Time: 1493286082.514082000 seconds
    [Time delta from previous captured frame: 1.379155000 seconds]
    [Time delta from previous displayed frame: 1.379155000 seconds]
    [Time since reference or first frame: 5.694921000 seconds]
    Frame Number: 4
    Frame Length: 36 bytes (288 bits)
    Capture Length: 36 bytes (288 bits)
    [Frame is marked: True]
    [Frame is ignored: False]
    [Protocols in frame: null:ip:udp:data]
    [Coloring Rule Name: UDP]
    [Coloring Rule String: udp]
Null/Loopback
    Family: IP (2)
Internet Protocol Version 4, Src: 127.0.0.1, Dst: 127.0.0.1
    0100 .... = Version: 4
    .... 0101 = Header Length: 20 bytes (5)
    Differentiated Services Field: 0x00 (DSCP: CS0, ECN: Not-ECT)
        0000 00.. = Differentiated Services Codepoint: Default (0)
        .... ..00 = Explicit Congestion Notification: Not ECN-Capable Transport (0)
    Total Length: 32
    Identification: 0xb364 (45924)
    Flags: 0x00
        0... .... = Reserved bit: Not set
        .0.. .... = Don't fragment: Not set
        ..0. .... = More fragments: Not set
    Fragment offset: 0
    Time to live: 64
    Protocol: UDP (17)
    Header checksum: 0x0000 [validation disabled]
    [Header checksum status: Unverified]
    Source: 127.0.0.1
    Destination: 127.0.0.1
    [Source GeoIP: Unknown]
    [Destination GeoIP: Unknown]
User Datagram Protocol, Src Port: 65291, Dst Port: 4296
    Source Port: 65291
    Destination Port: 4296
    Length: 12
    Checksum: 0xfe1f [unverified]
    [Checksum Status: Unverified]
    [Stream index: 1]
Data (4 bytes)
    Data: 08000100
    [Length: 4]

0000  02 00 00 00 45 00 00 20 b3 64 00 00 40 11 00 00   ....E.. .d..@...
0010  7f 00 00 01 7f 00 00 01 ff 0b 10 c8 00 0c fe 1f   ................
0020  08 00 01 00                                       ....

No.     Time                          Source                Destination           Protocol Length Info
      5 2017-04-27 11:41:22.514491    127.0.0.1             127.0.0.1             UDP      35     4296 → 65291 Len=3

Frame 5: 35 bytes on wire (280 bits), 35 bytes captured (280 bits) on interface 0
    Interface id: 0 (lo0)
    Encapsulation type: NULL/Loopback (15)
    Arrival Time: Apr 27, 2017 11:41:22.514491000 CEST
    [Time shift for this packet: 0.000000000 seconds]
    Epoch Time: 1493286082.514491000 seconds
    [Time delta from previous captured frame: 0.000409000 seconds]
    [Time delta from previous displayed frame: 0.000409000 seconds]
    [Time since reference or first frame: 5.695330000 seconds]
    Frame Number: 5
    Frame Length: 35 bytes (280 bits)
    Capture Length: 35 bytes (280 bits)
    [Frame is marked: True]
    [Frame is ignored: False]
    [Protocols in frame: null:ip:udp:data]
    [Coloring Rule Name: UDP]
    [Coloring Rule String: udp]
Null/Loopback
    Family: IP (2)
Internet Protocol Version 4, Src: 127.0.0.1, Dst: 127.0.0.1
    0100 .... = Version: 4
    .... 0101 = Header Length: 20 bytes (5)
    Differentiated Services Field: 0x00 (DSCP: CS0, ECN: Not-ECT)
        0000 00.. = Differentiated Services Codepoint: Default (0)
        .... ..00 = Explicit Congestion Notification: Not ECN-Capable Transport (0)
    Total Length: 31
    Identification: 0x45c3 (17859)
    Flags: 0x00
        0... .... = Reserved bit: Not set
        .0.. .... = Don't fragment: Not set
        ..0. .... = More fragments: Not set
    Fragment offset: 0
    Time to live: 64
    Protocol: UDP (17)
    Header checksum: 0x0000 [validation disabled]
    [Header checksum status: Unverified]
    Source: 127.0.0.1
    Destination: 127.0.0.1
    [Source GeoIP: Unknown]
    [Destination GeoIP: Unknown]
User Datagram Protocol, Src Port: 4296, Dst Port: 65291
    Source Port: 4296
    Destination Port: 65291
    Length: 11
    Checksum: 0xfe1e [unverified]
    [Checksum Status: Unverified]
    [Stream index: 1]
Data (3 bytes)
    Data: 0a0001
    [Length: 3]

0000  02 00 00 00 45 00 00 1f 45 c3 00 00 40 11 00 00   ....E...E...@...
0010  7f 00 00 01 7f 00 00 01 10 c8 ff 0b 00 0b fe 1e   ................
0020  0a 00 01                                          ...

No.     Time                          Source                Destination           Protocol Length Info
      6 2017-04-27 11:41:22.520775    127.0.0.1             127.0.0.1             UDP      45     65291 → 4296 Len=13

Frame 6: 45 bytes on wire (360 bits), 45 bytes captured (360 bits) on interface 0
    Interface id: 0 (lo0)
    Encapsulation type: NULL/Loopback (15)
    Arrival Time: Apr 27, 2017 11:41:22.520775000 CEST
    [Time shift for this packet: 0.000000000 seconds]
    Epoch Time: 1493286082.520775000 seconds
    [Time delta from previous captured frame: 0.006284000 seconds]
    [Time delta from previous displayed frame: 0.006284000 seconds]
    [Time since reference or first frame: 5.701614000 seconds]
    Frame Number: 6
    Frame Length: 45 bytes (360 bits)
    Capture Length: 45 bytes (360 bits)
    [Frame is marked: True]
    [Frame is ignored: False]
    [Protocols in frame: null:ip:udp:data]
    [Coloring Rule Name: UDP]
    [Coloring Rule String: udp]
Null/Loopback
    Family: IP (2)
Internet Protocol Version 4, Src: 127.0.0.1, Dst: 127.0.0.1
    0100 .... = Version: 4
    .... 0101 = Header Length: 20 bytes (5)
    Differentiated Services Field: 0x00 (DSCP: CS0, ECN: Not-ECT)
        0000 00.. = Differentiated Services Codepoint: Default (0)
        .... ..00 = Explicit Congestion Notification: Not ECN-Capable Transport (0)
    Total Length: 41
    Identification: 0x95d6 (38358)
    Flags: 0x00
        0... .... = Reserved bit: Not set
        .0.. .... = Don't fragment: Not set
        ..0. .... = More fragments: Not set
    Fragment offset: 0
    Time to live: 64
    Protocol: UDP (17)
    Header checksum: 0x0000 [validation disabled]
    [Header checksum status: Unverified]
    Source: 127.0.0.1
    Destination: 127.0.0.1
    [Source GeoIP: Unknown]
    [Destination GeoIP: Unknown]
User Datagram Protocol, Src Port: 65291, Dst Port: 4296
    Source Port: 65291
    Destination Port: 4296
    Length: 21
    Checksum: 0xfe28 [unverified]
    [Checksum Status: Unverified]
    [Stream index: 1]
Data (13 bytes)
    Data: 01000200010203040506070809
    [Length: 13]

0000  02 00 00 00 45 00 00 29 95 d6 00 00 40 11 00 00   ....E..)....@...
0010  7f 00 00 01 7f 00 00 01 ff 0b 10 c8 00 15 fe 28   ...............(
0020  01 00 02 00 01 02 03 04 05 06 07 08 09            .............

No.     Time                          Source                Destination           Protocol Length Info
      7 2017-04-27 11:41:22.521243    127.0.0.1             127.0.0.1             UDP      35     4296 → 65291 Len=3

Frame 7: 35 bytes on wire (280 bits), 35 bytes captured (280 bits) on interface 0
    Interface id: 0 (lo0)
    Encapsulation type: NULL/Loopback (15)
    Arrival Time: Apr 27, 2017 11:41:22.521243000 CEST
    [Time shift for this packet: 0.000000000 seconds]
    Epoch Time: 1493286082.521243000 seconds
    [Time delta from previous captured frame: 0.000468000 seconds]
    [Time delta from previous displayed frame: 0.000468000 seconds]
    [Time since reference or first frame: 5.702082000 seconds]
    Frame Number: 7
    Frame Length: 35 bytes (280 bits)
    Capture Length: 35 bytes (280 bits)
    [Frame is marked: True]
    [Frame is ignored: False]
    [Protocols in frame: null:ip:udp:data]
    [Coloring Rule Name: UDP]
    [Coloring Rule String: udp]
Null/Loopback
    Family: IP (2)
Internet Protocol Version 4, Src: 127.0.0.1, Dst: 127.0.0.1
    0100 .... = Version: 4
    .... 0101 = Header Length: 20 bytes (5)
    Differentiated Services Field: 0x00 (DSCP: CS0, ECN: Not-ECT)
        0000 00.. = Differentiated Services Codepoint: Default (0)
        .... ..00 = Explicit Congestion Notification: Not ECN-Capable Transport (0)
    Total Length: 31
    Identification: 0x3339 (13113)
    Flags: 0x00
        0... .... = Reserved bit: Not set
        .0.. .... = Don't fragment: Not set
        ..0. .... = More fragments: Not set
    Fragment offset: 0
    Time to live: 64
    Protocol: UDP (17)
    Header checksum: 0x0000 [validation disabled]
    [Header checksum status: Unverified]
    Source: 127.0.0.1
    Destination: 127.0.0.1
    [Source GeoIP: Unknown]
    [Destination GeoIP: Unknown]
User Datagram Protocol, Src Port: 4296, Dst Port: 65291
    Source Port: 4296
    Destination Port: 65291
    Length: 11
    Checksum: 0xfe1e [unverified]
    [Checksum Status: Unverified]
    [Stream index: 1]
Data (3 bytes)
    Data: 0a0002
    [Length: 3]

0000  02 00 00 00 45 00 00 1f 33 39 00 00 40 11 00 00   ....E...39..@...
0010  7f 00 00 01 7f 00 00 01 10 c8 ff 0b 00 0b fe 1e   ................
0020  0a 00 02                                          ...

No.     Time                          Source                Destination           Protocol Length Info
      8 2017-04-27 11:41:22.527156    127.0.0.1             127.0.0.1             UDP      45     4296 → 65291 Len=13

Frame 8: 45 bytes on wire (360 bits), 45 bytes captured (360 bits) on interface 0
    Interface id: 0 (lo0)
    Encapsulation type: NULL/Loopback (15)
    Arrival Time: Apr 27, 2017 11:41:22.527156000 CEST
    [Time shift for this packet: 0.000000000 seconds]
    Epoch Time: 1493286082.527156000 seconds
    [Time delta from previous captured frame: 0.005913000 seconds]
    [Time delta from previous displayed frame: 0.005913000 seconds]
    [Time since reference or first frame: 5.707995000 seconds]
    Frame Number: 8
    Frame Length: 45 bytes (360 bits)
    Capture Length: 45 bytes (360 bits)
    [Frame is marked: True]
    [Frame is ignored: False]
    [Protocols in frame: null:ip:udp:data]
    [Coloring Rule Name: UDP]
    [Coloring Rule String: udp]
Null/Loopback
    Family: IP (2)
Internet Protocol Version 4, Src: 127.0.0.1, Dst: 127.0.0.1
    0100 .... = Version: 4
    .... 0101 = Header Length: 20 bytes (5)
    Differentiated Services Field: 0x00 (DSCP: CS0, ECN: Not-ECT)
        0000 00.. = Differentiated Services Codepoint: Default (0)
        .... ..00 = Explicit Congestion Notification: Not ECN-Capable Transport (0)
    Total Length: 41
    Identification: 0xe496 (58518)
    Flags: 0x00
        0... .... = Reserved bit: Not set
        .0.. .... = Don't fragment: Not set
        ..0. .... = More fragments: Not set
    Fragment offset: 0
    Time to live: 64
    Protocol: UDP (17)
    Header checksum: 0x0000 [validation disabled]
    [Header checksum status: Unverified]
    Source: 127.0.0.1
    Destination: 127.0.0.1
    [Source GeoIP: Unknown]
    [Destination GeoIP: Unknown]
User Datagram Protocol, Src Port: 4296, Dst Port: 65291
    Source Port: 4296
    Destination Port: 65291
    Length: 21
    Checksum: 0xfe28 [unverified]
    [Checksum Status: Unverified]
    [Stream index: 1]
Data (13 bytes)
    Data: 01000100010203040506070809
    [Length: 13]

0000  02 00 00 00 45 00 00 29 e4 96 00 00 40 11 00 00   ....E..)....@...
0010  7f 00 00 01 7f 00 00 01 10 c8 ff 0b 00 15 fe 28   ...............(
0020  01 00 01 00 01 02 03 04 05 06 07 08 09            .............

No.     Time                          Source                Destination           Protocol Length Info
      9 2017-04-27 11:41:22.528032    127.0.0.1             127.0.0.1             UDP      35     65291 → 4296 Len=3

Frame 9: 35 bytes on wire (280 bits), 35 bytes captured (280 bits) on interface 0
    Interface id: 0 (lo0)
    Encapsulation type: NULL/Loopback (15)
    Arrival Time: Apr 27, 2017 11:41:22.528032000 CEST
    [Time shift for this packet: 0.000000000 seconds]
    Epoch Time: 1493286082.528032000 seconds
    [Time delta from previous captured frame: 0.000876000 seconds]
    [Time delta from previous displayed frame: 0.000876000 seconds]
    [Time since reference or first frame: 5.708871000 seconds]
    Frame Number: 9
    Frame Length: 35 bytes (280 bits)
    Capture Length: 35 bytes (280 bits)
    [Frame is marked: True]
    [Frame is ignored: False]
    [Protocols in frame: null:ip:udp:data]
    [Coloring Rule Name: UDP]
    [Coloring Rule String: udp]
Null/Loopback
    Family: IP (2)
Internet Protocol Version 4, Src: 127.0.0.1, Dst: 127.0.0.1
    0100 .... = Version: 4
    .... 0101 = Header Length: 20 bytes (5)
    Differentiated Services Field: 0x00 (DSCP: CS0, ECN: Not-ECT)
        0000 00.. = Differentiated Services Codepoint: Default (0)
        .... ..00 = Explicit Congestion Notification: Not ECN-Capable Transport (0)
    Total Length: 31
    Identification: 0xb3d6 (46038)
    Flags: 0x00
        0... .... = Reserved bit: Not set
        .0.. .... = Don't fragment: Not set
        ..0. .... = More fragments: Not set
    Fragment offset: 0
    Time to live: 64
    Protocol: UDP (17)
    Header checksum: 0x0000 [validation disabled]
    [Header checksum status: Unverified]
    Source: 127.0.0.1
    Destination: 127.0.0.1
    [Source GeoIP: Unknown]
    [Destination GeoIP: Unknown]
User Datagram Protocol, Src Port: 65291, Dst Port: 4296
    Source Port: 65291
    Destination Port: 4296
    Length: 11
    Checksum: 0xfe1e [unverified]
    [Checksum Status: Unverified]
    [Stream index: 1]
Data (3 bytes)
    Data: 0a0001
    [Length: 3]

0000  02 00 00 00 45 00 00 1f b3 d6 00 00 40 11 00 00   ....E.......@...
0010  7f 00 00 01 7f 00 00 01 ff 0b 10 c8 00 0b fe 1e   ................
0020  0a 00 01                                          ...

No.     Time                          Source                Destination           Protocol Length Info
     10 2017-04-27 11:41:24.518747    127.0.0.1             127.0.0.1             UDP      33     65291 → 4296 Len=1

Frame 10: 33 bytes on wire (264 bits), 33 bytes captured (264 bits) on interface 0
    Interface id: 0 (lo0)
    Encapsulation type: NULL/Loopback (15)
    Arrival Time: Apr 27, 2017 11:41:24.518747000 CEST
    [Time shift for this packet: 0.000000000 seconds]
    Epoch Time: 1493286084.518747000 seconds
    [Time delta from previous captured frame: 1.990715000 seconds]
    [Time delta from previous displayed frame: 1.990715000 seconds]
    [Time since reference or first frame: 7.699586000 seconds]
    Frame Number: 10
    Frame Length: 33 bytes (264 bits)
    Capture Length: 33 bytes (264 bits)
    [Frame is marked: True]
    [Frame is ignored: False]
    [Protocols in frame: null:ip:udp:data]
    [Coloring Rule Name: UDP]
    [Coloring Rule String: udp]
Null/Loopback
    Family: IP (2)
Internet Protocol Version 4, Src: 127.0.0.1, Dst: 127.0.0.1
    0100 .... = Version: 4
    .... 0101 = Header Length: 20 bytes (5)
    Differentiated Services Field: 0x00 (DSCP: CS0, ECN: Not-ECT)
        0000 00.. = Differentiated Services Codepoint: Default (0)
        .... ..00 = Explicit Congestion Notification: Not ECN-Capable Transport (0)
    Total Length: 29
    Identification: 0xc294 (49812)
    Flags: 0x00
        0... .... = Reserved bit: Not set
        .0.. .... = Don't fragment: Not set
        ..0. .... = More fragments: Not set
    Fragment offset: 0
    Time to live: 64
    Protocol: UDP (17)
    Header checksum: 0x0000 [validation disabled]
    [Header checksum status: Unverified]
    Source: 127.0.0.1
    Destination: 127.0.0.1
    [Source GeoIP: Unknown]
    [Destination GeoIP: Unknown]
User Datagram Protocol, Src Port: 65291, Dst Port: 4296
    Source Port: 65291
    Destination Port: 4296
    Length: 9
    Checksum: 0xfe1c [unverified]
    [Checksum Status: Unverified]
    [Stream index: 1]
Data (1 byte)
    Data: 09
    [Length: 1]

0000  02 00 00 00 45 00 00 1d c2 94 00 00 40 11 00 00   ....E.......@...
0010  7f 00 00 01 7f 00 00 01 ff 0b 10 c8 00 09 fe 1c   ................
0020  09                                                .

No.     Time                          Source                Destination           Protocol Length Info
     11 2017-04-27 11:41:27.159079    127.0.0.1             127.0.0.1             UDP      36     52645 → 4296 Len=4

Frame 11: 36 bytes on wire (288 bits), 36 bytes captured (288 bits) on interface 0
    Interface id: 0 (lo0)
    Encapsulation type: NULL/Loopback (15)
    Arrival Time: Apr 27, 2017 11:41:27.159079000 CEST
    [Time shift for this packet: 0.000000000 seconds]
    Epoch Time: 1493286087.159079000 seconds
    [Time delta from previous captured frame: 2.640332000 seconds]
    [Time delta from previous displayed frame: 2.640332000 seconds]
    [Time since reference or first frame: 10.339918000 seconds]
    Frame Number: 11
    Frame Length: 36 bytes (288 bits)
    Capture Length: 36 bytes (288 bits)
    [Frame is marked: True]
    [Frame is ignored: False]
    [Protocols in frame: null:ip:udp:data]
    [Coloring Rule Name: UDP]
    [Coloring Rule String: udp]
Null/Loopback
    Family: IP (2)
Internet Protocol Version 4, Src: 127.0.0.1, Dst: 127.0.0.1
    0100 .... = Version: 4
    .... 0101 = Header Length: 20 bytes (5)
    Differentiated Services Field: 0x00 (DSCP: CS0, ECN: Not-ECT)
        0000 00.. = Differentiated Services Codepoint: Default (0)
        .... ..00 = Explicit Congestion Notification: Not ECN-Capable Transport (0)
    Total Length: 32
    Identification: 0x87d0 (34768)
    Flags: 0x00
        0... .... = Reserved bit: Not set
        .0.. .... = Don't fragment: Not set
        ..0. .... = More fragments: Not set
    Fragment offset: 0
    Time to live: 64
    Protocol: UDP (17)
    Header checksum: 0x0000 [validation disabled]
    [Header checksum status: Unverified]
    Source: 127.0.0.1
    Destination: 127.0.0.1
    [Source GeoIP: Unknown]
    [Destination GeoIP: Unknown]
User Datagram Protocol, Src Port: 52645, Dst Port: 4296
    Source Port: 52645
    Destination Port: 4296
    Length: 12
    Checksum: 0xfe1f [unverified]
    [Checksum Status: Unverified]
    [Stream index: 2]
Data (4 bytes)
    Data: 08000100
    [Length: 4]

0000  02 00 00 00 45 00 00 20 87 d0 00 00 40 11 00 00   ....E.. ....@...
0010  7f 00 00 01 7f 00 00 01 cd a5 10 c8 00 0c fe 1f   ................
0020  08 00 01 00                                       ....

No.     Time                          Source                Destination           Protocol Length Info
     12 2017-04-27 11:41:27.159492    127.0.0.1             127.0.0.1             UDP      35     4296 → 52645 Len=3

Frame 12: 35 bytes on wire (280 bits), 35 bytes captured (280 bits) on interface 0
    Interface id: 0 (lo0)
    Encapsulation type: NULL/Loopback (15)
    Arrival Time: Apr 27, 2017 11:41:27.159492000 CEST
    [Time shift for this packet: 0.000000000 seconds]
    Epoch Time: 1493286087.159492000 seconds
    [Time delta from previous captured frame: 0.000413000 seconds]
    [Time delta from previous displayed frame: 0.000413000 seconds]
    [Time since reference or first frame: 10.340331000 seconds]
    Frame Number: 12
    Frame Length: 35 bytes (280 bits)
    Capture Length: 35 bytes (280 bits)
    [Frame is marked: True]
    [Frame is ignored: False]
    [Protocols in frame: null:ip:udp:data]
    [Coloring Rule Name: UDP]
    [Coloring Rule String: udp]
Null/Loopback
    Family: IP (2)
Internet Protocol Version 4, Src: 127.0.0.1, Dst: 127.0.0.1
    0100 .... = Version: 4
    .... 0101 = Header Length: 20 bytes (5)
    Differentiated Services Field: 0x00 (DSCP: CS0, ECN: Not-ECT)
        0000 00.. = Differentiated Services Codepoint: Default (0)
        .... ..00 = Explicit Congestion Notification: Not ECN-Capable Transport (0)
    Total Length: 31
    Identification: 0x3ad4 (15060)
    Flags: 0x00
        0... .... = Reserved bit: Not set
        .0.. .... = Don't fragment: Not set
        ..0. .... = More fragments: Not set
    Fragment offset: 0
    Time to live: 64
    Protocol: UDP (17)
    Header checksum: 0x0000 [validation disabled]
    [Header checksum status: Unverified]
    Source: 127.0.0.1
    Destination: 127.0.0.1
    [Source GeoIP: Unknown]
    [Destination GeoIP: Unknown]
User Datagram Protocol, Src Port: 4296, Dst Port: 52645
    Source Port: 4296
    Destination Port: 52645
    Length: 11
    Checksum: 0xfe1e [unverified]
    [Checksum Status: Unverified]
    [Stream index: 2]
Data (3 bytes)
    Data: 0a0001
    [Length: 3]

0000  02 00 00 00 45 00 00 1f 3a d4 00 00 40 11 00 00   ....E...:...@...
0010  7f 00 00 01 7f 00 00 01 10 c8 cd a5 00 0b fe 1e   ................
0020  0a 00 01                                          ...

No.     Time                          Source                Destination           Protocol Length Info
     13 2017-04-27 11:41:27.165468    127.0.0.1             127.0.0.1             UDP      45     52645 → 4296 Len=13

Frame 13: 45 bytes on wire (360 bits), 45 bytes captured (360 bits) on interface 0
    Interface id: 0 (lo0)
    Encapsulation type: NULL/Loopback (15)
    Arrival Time: Apr 27, 2017 11:41:27.165468000 CEST
    [Time shift for this packet: 0.000000000 seconds]
    Epoch Time: 1493286087.165468000 seconds
    [Time delta from previous captured frame: 0.005976000 seconds]
    [Time delta from previous displayed frame: 0.005976000 seconds]
    [Time since reference or first frame: 10.346307000 seconds]
    Frame Number: 13
    Frame Length: 45 bytes (360 bits)
    Capture Length: 45 bytes (360 bits)
    [Frame is marked: True]
    [Frame is ignored: False]
    [Protocols in frame: null:ip:udp:data]
    [Coloring Rule Name: UDP]
    [Coloring Rule String: udp]
Null/Loopback
    Family: IP (2)
Internet Protocol Version 4, Src: 127.0.0.1, Dst: 127.0.0.1
    0100 .... = Version: 4
    .... 0101 = Header Length: 20 bytes (5)
    Differentiated Services Field: 0x00 (DSCP: CS0, ECN: Not-ECT)
        0000 00.. = Differentiated Services Codepoint: Default (0)
        .... ..00 = Explicit Congestion Notification: Not ECN-Capable Transport (0)
    Total Length: 41
    Identification: 0x73e1 (29665)
    Flags: 0x00
        0... .... = Reserved bit: Not set
        .0.. .... = Don't fragment: Not set
        ..0. .... = More fragments: Not set
    Fragment offset: 0
    Time to live: 64
    Protocol: UDP (17)
    Header checksum: 0x0000 [validation disabled]
    [Header checksum status: Unverified]
    Source: 127.0.0.1
    Destination: 127.0.0.1
    [Source GeoIP: Unknown]
    [Destination GeoIP: Unknown]
User Datagram Protocol, Src Port: 52645, Dst Port: 4296
    Source Port: 52645
    Destination Port: 4296
    Length: 21
    Checksum: 0xfe28 [unverified]
    [Checksum Status: Unverified]
    [Stream index: 2]
Data (13 bytes)
    Data: 01000200010203040506070809
    [Length: 13]

0000  02 00 00 00 45 00 00 29 73 e1 00 00 40 11 00 00   ....E..)s...@...
0010  7f 00 00 01 7f 00 00 01 cd a5 10 c8 00 15 fe 28   ...............(
0020  01 00 02 00 01 02 03 04 05 06 07 08 09            .............

No.     Time                          Source                Destination           Protocol Length Info
     14 2017-04-27 11:41:27.166019    127.0.0.1             127.0.0.1             UDP      35     4296 → 52645 Len=3

Frame 14: 35 bytes on wire (280 bits), 35 bytes captured (280 bits) on interface 0
    Interface id: 0 (lo0)
    Encapsulation type: NULL/Loopback (15)
    Arrival Time: Apr 27, 2017 11:41:27.166019000 CEST
    [Time shift for this packet: 0.000000000 seconds]
    Epoch Time: 1493286087.166019000 seconds
    [Time delta from previous captured frame: 0.000551000 seconds]
    [Time delta from previous displayed frame: 0.000551000 seconds]
    [Time since reference or first frame: 10.346858000 seconds]
    Frame Number: 14
    Frame Length: 35 bytes (280 bits)
    Capture Length: 35 bytes (280 bits)
    [Frame is marked: True]
    [Frame is ignored: False]
    [Protocols in frame: null:ip:udp:data]
    [Coloring Rule Name: UDP]
    [Coloring Rule String: udp]
Null/Loopback
    Family: IP (2)
Internet Protocol Version 4, Src: 127.0.0.1, Dst: 127.0.0.1
    0100 .... = Version: 4
    .... 0101 = Header Length: 20 bytes (5)
    Differentiated Services Field: 0x00 (DSCP: CS0, ECN: Not-ECT)
        0000 00.. = Differentiated Services Codepoint: Default (0)
        .... ..00 = Explicit Congestion Notification: Not ECN-Capable Transport (0)
    Total Length: 31
    Identification: 0xe0fa (57594)
    Flags: 0x00
        0... .... = Reserved bit: Not set
        .0.. .... = Don't fragment: Not set
        ..0. .... = More fragments: Not set
    Fragment offset: 0
    Time to live: 64
    Protocol: UDP (17)
    Header checksum: 0x0000 [validation disabled]
    [Header checksum status: Unverified]
    Source: 127.0.0.1
    Destination: 127.0.0.1
    [Source GeoIP: Unknown]
    [Destination GeoIP: Unknown]
User Datagram Protocol, Src Port: 4296, Dst Port: 52645
    Source Port: 4296
    Destination Port: 52645
    Length: 11
    Checksum: 0xfe1e [unverified]
    [Checksum Status: Unverified]
    [Stream index: 2]
Data (3 bytes)
    Data: 0a0002
    [Length: 3]

0000  02 00 00 00 45 00 00 1f e0 fa 00 00 40 11 00 00   ....E.......@...
0010  7f 00 00 01 7f 00 00 01 10 c8 cd a5 00 0b fe 1e   ................
0020  0a 00 02                                          ...

No.     Time                          Source                Destination           Protocol Length Info
     15 2017-04-27 11:41:27.166434    127.0.0.1             127.0.0.1             UDP      45     4296 → 52645 Len=13

Frame 15: 45 bytes on wire (360 bits), 45 bytes captured (360 bits) on interface 0
    Interface id: 0 (lo0)
    Encapsulation type: NULL/Loopback (15)
    Arrival Time: Apr 27, 2017 11:41:27.166434000 CEST
    [Time shift for this packet: 0.000000000 seconds]
    Epoch Time: 1493286087.166434000 seconds
    [Time delta from previous captured frame: 0.000415000 seconds]
    [Time delta from previous displayed frame: 0.000415000 seconds]
    [Time since reference or first frame: 10.347273000 seconds]
    Frame Number: 15
    Frame Length: 45 bytes (360 bits)
    Capture Length: 45 bytes (360 bits)
    [Frame is marked: True]
    [Frame is ignored: False]
    [Protocols in frame: null:ip:udp:data]
    [Coloring Rule Name: UDP]
    [Coloring Rule String: udp]
Null/Loopback
    Family: IP (2)
Internet Protocol Version 4, Src: 127.0.0.1, Dst: 127.0.0.1
    0100 .... = Version: 4
    .... 0101 = Header Length: 20 bytes (5)
    Differentiated Services Field: 0x00 (DSCP: CS0, ECN: Not-ECT)
        0000 00.. = Differentiated Services Codepoint: Default (0)
        .... ..00 = Explicit Congestion Notification: Not ECN-Capable Transport (0)
    Total Length: 41
    Identification: 0xe253 (57939)
    Flags: 0x00
        0... .... = Reserved bit: Not set
        .0.. .... = Don't fragment: Not set
        ..0. .... = More fragments: Not set
    Fragment offset: 0
    Time to live: 64
    Protocol: UDP (17)
    Header checksum: 0x0000 [validation disabled]
    [Header checksum status: Unverified]
    Source: 127.0.0.1
    Destination: 127.0.0.1
    [Source GeoIP: Unknown]
    [Destination GeoIP: Unknown]
User Datagram Protocol, Src Port: 4296, Dst Port: 52645
    Source Port: 4296
    Destination Port: 52645
    Length: 21
    Checksum: 0xfe28 [unverified]
    [Checksum Status: Unverified]
    [Stream index: 2]
Data (13 bytes)
    Data: 01000100010203040506070809
    [Length: 13]

0000  02 00 00 00 45 00 00 29 e2 53 00 00 40 11 00 00   ....E..).S..@...
0010  7f 00 00 01 7f 00 00 01 10 c8 cd a5 00 15 fe 28   ...............(
0020  01 00 01 00 01 02 03 04 05 06 07 08 09            .............

No.     Time                          Source                Destination           Protocol Length Info
     16 2017-04-27 11:41:27.167536    127.0.0.1             127.0.0.1             UDP      35     52645 → 4296 Len=3

Frame 16: 35 bytes on wire (280 bits), 35 bytes captured (280 bits) on interface 0
    Interface id: 0 (lo0)
    Encapsulation type: NULL/Loopback (15)
    Arrival Time: Apr 27, 2017 11:41:27.167536000 CEST
    [Time shift for this packet: 0.000000000 seconds]
    Epoch Time: 1493286087.167536000 seconds
    [Time delta from previous captured frame: 0.001102000 seconds]
    [Time delta from previous displayed frame: 0.001102000 seconds]
    [Time since reference or first frame: 10.348375000 seconds]
    Frame Number: 16
    Frame Length: 35 bytes (280 bits)
    Capture Length: 35 bytes (280 bits)
    [Frame is marked: True]
    [Frame is ignored: False]
    [Protocols in frame: null:ip:udp:data]
    [Coloring Rule Name: UDP]
    [Coloring Rule String: udp]
Null/Loopback
    Family: IP (2)
Internet Protocol Version 4, Src: 127.0.0.1, Dst: 127.0.0.1
    0100 .... = Version: 4
    .... 0101 = Header Length: 20 bytes (5)
    Differentiated Services Field: 0x00 (DSCP: CS0, ECN: Not-ECT)
        0000 00.. = Differentiated Services Codepoint: Default (0)
        .... ..00 = Explicit Congestion Notification: Not ECN-Capable Transport (0)
    Total Length: 31
    Identification: 0x6c79 (27769)
    Flags: 0x00
        0... .... = Reserved bit: Not set
        .0.. .... = Don't fragment: Not set
        ..0. .... = More fragments: Not set
    Fragment offset: 0
    Time to live: 64
    Protocol: UDP (17)
    Header checksum: 0x0000 [validation disabled]
    [Header checksum status: Unverified]
    Source: 127.0.0.1
    Destination: 127.0.0.1
    [Source GeoIP: Unknown]
    [Destination GeoIP: Unknown]
User Datagram Protocol, Src Port: 52645, Dst Port: 4296
    Source Port: 52645
    Destination Port: 4296
    Length: 11
    Checksum: 0xfe1e [unverified]
    [Checksum Status: Unverified]
    [Stream index: 2]
Data (3 bytes)
    Data: 0a0001
    [Length: 3]

0000  02 00 00 00 45 00 00 1f 6c 79 00 00 40 11 00 00   ....E...ly..@...
0010  7f 00 00 01 7f 00 00 01 cd a5 10 c8 00 0b fe 1e   ................
0020  0a 00 01                                          ...

No.     Time                          Source                Destination           Protocol Length Info
     17 2017-04-27 11:41:30.814939    127.0.0.1             127.0.0.1             UDP      33     52645 → 4296 Len=1

Frame 17: 33 bytes on wire (264 bits), 33 bytes captured (264 bits) on interface 0
    Interface id: 0 (lo0)
    Encapsulation type: NULL/Loopback (15)
    Arrival Time: Apr 27, 2017 11:41:30.814939000 CEST
    [Time shift for this packet: 0.000000000 seconds]
    Epoch Time: 1493286090.814939000 seconds
    [Time delta from previous captured frame: 3.647403000 seconds]
    [Time delta from previous displayed frame: 3.647403000 seconds]
    [Time since reference or first frame: 13.995778000 seconds]
    Frame Number: 17
    Frame Length: 33 bytes (264 bits)
    Capture Length: 33 bytes (264 bits)
    [Frame is marked: True]
    [Frame is ignored: False]
    [Protocols in frame: null:ip:udp:data]
    [Coloring Rule Name: UDP]
    [Coloring Rule String: udp]
Null/Loopback
    Family: IP (2)
Internet Protocol Version 4, Src: 127.0.0.1, Dst: 127.0.0.1
    0100 .... = Version: 4
    .... 0101 = Header Length: 20 bytes (5)
    Differentiated Services Field: 0x00 (DSCP: CS0, ECN: Not-ECT)
        0000 00.. = Differentiated Services Codepoint: Default (0)
        .... ..00 = Explicit Congestion Notification: Not ECN-Capable Transport (0)
    Total Length: 29
    Identification: 0xf668 (63080)
    Flags: 0x00
        0... .... = Reserved bit: Not set
        .0.. .... = Don't fragment: Not set
        ..0. .... = More fragments: Not set
    Fragment offset: 0
    Time to live: 64
    Protocol: UDP (17)
    Header checksum: 0x0000 [validation disabled]
    [Header checksum status: Unverified]
    Source: 127.0.0.1
    Destination: 127.0.0.1
    [Source GeoIP: Unknown]
    [Destination GeoIP: Unknown]
User Datagram Protocol, Src Port: 52645, Dst Port: 4296
    Source Port: 52645
    Destination Port: 4296
    Length: 9
    Checksum: 0xfe1c [unverified]
    [Checksum Status: Unverified]
    [Stream index: 2]
Data (1 byte)
    Data: 09
    [Length: 1]

0000  02 00 00 00 45 00 00 1d f6 68 00 00 40 11 00 00   ....E....h..@...
0010  7f 00 00 01 7f 00 00 01 cd a5 10 c8 00 09 fe 1c   ................
0020  09                                                .

No.     Time                          Source                Destination           Protocol Length Info
     19 2017-04-27 11:43:15.905939                                                         92     <Ignored>

Frame 19: 92 bytes on wire (736 bits), 92 bytes captured (736 bits) on interface 0
    Interface id: 0 (lo0)
    Encapsulation type: NULL/Loopback (15)
    Arrival Time: Apr 27, 2017 11:43:15.905939000 CEST
    [Time shift for this packet: 0.000000000 seconds]
    Epoch Time: 1493286195.905939000 seconds
    [Time delta from previous captured frame: 0.000062000 seconds]
    [Time delta from previous displayed frame: 0.000062000 seconds]
    [Time since reference or first frame: 119.086778000 seconds]
    Frame Number: 19
    Frame Length: 92 bytes (736 bits)
    Capture Length: 92 bytes (736 bits)
    [Frame is marked: True]
    [Frame is ignored: True]
This frame is marked as ignored

0000  1e 00 00 00 60 03 bb a9 00 30 11 ff fe 80 00 00   ....`....0......
0010  00 00 00 00 5a b0 35 ff fe f3 ab be ff 02 00 00   ....Z.5.........
0020  00 00 00 00 00 00 00 00 00 00 00 fb 14 e9 14 e9   ................
0030  00 30 d1 c2 00 00 00 00 00 01 00 00 00 00 00 00   .0..............
0040  0b 5f 67 6f 6f 67 6c 65 63 61 73 74 04 5f 74 63   ._googlecast._tc
0050  70 05 6c 6f 63 61 6c 00 00 0c 80 01               p.local.....
